:020000040000FA
:100000000C945D000C9485000C9485000C94850084
:100010000C9485000C9485000C9485000C9485004C
:100020000C9485000C9471060C9485000C94B50515
:100030000C9485000C9485000C9485000C9485002C
:100040000C94F8030C9485000C9468040C944204FE
:100050000C9485000C9485000C9485000C9485000C
:100060000C949A040C948500000000080002010022
:100070000003040700000000000000000000000072
:10008000250028002B0000000000240027002A0083
:10009000040404040404040402020202020203032E
:1000A0000303030301020408102040800102040836
:1000B0001020010204081020C80611241FBECFEF33
:1000C000D8E0DEBFCDBF11E0A0E0B1E0E2EAFEE1A2
:1000D00002C005900D92AE35B107D9F723E0AEE529
:1000E000B1E001C01D92AE3BB207E1F710E0CDE5F3
:1000F000D0E004C02197FE010E94490FCC35D10702
:10010000C9F70E9488080C944F0F0C940000EEE38E
:10011000F2E0A089B18982E08C93A485B5851C9218
:10012000A685B7858FEC8C93108EA489B58986E05F
:100130008C93A289B3898C9180618C93A289B389B5
:100140008C9188608C93A289B3898C9180688C9300
:100150000288F389E02D80818F7D8083089590E06F
:10016000FC01EC55FF4F249180579F4FFC01849177
:10017000882399F090E0880F991FFC01EA57FF4F00
:10018000A591B491FC01E458FF4F859194918FB7EC
:10019000F894EC91E22BEC938FBF089590E0FC0172
:1001A000E859FF4F2491FC01EC55FF4F3491FC01BD
:1001B000E057FF4FE491EE23C9F0222339F02330BA
:1001C00001F1A8F4213019F1223029F1F0E0EE0F0D
:1001D000FF1FE458FF4FA591B4918FB7F894EC91AD
:1001E000611126C030953E233C938FBF0895273080
:1001F000A9F02830C9F0243049F7809180008F7D24
:1002000003C0809180008F7780938000DFCF84B51A
:100210008F7784BDDBCF84B58F7DFBCF8091B0001D
:100220008F778093B000D2CF8091B0008F7DF9CFCF
:100230003E2BDACF1F93CF93DF93182FEB010E9451
:10024000AF00209739F460E0812FDF91CF911F91AB
:100250000C94CE00CF3FD10511F461E0F5CFE12F32
:10026000F0E0E859FF4FE491E33031F140F4E13040
:10027000B1F0E230E1F0C038D1057CF7E4CFE730EF
:1002800029F1E83059F1E430B1F7809180008062C3
:1002900080938000D0938B00C0938A0004C084B503
:1002A000806884BDC7BDDF91CF911F91089584B54B
:1002B000806284BDC8BDF7CF809180008068809344
:1002C0008000D0938900C0938800EDCF8091B0006A
:1002D00080688093B000C093B300E5CF8091B000F8
:1002E00080628093B000C093B400DDCF3FB7F89434
:1002F00080913A0290913B02A0913C02B0913D0264
:1003000026B5A89B05C02F3F19F00196A11DB11D70
:100310003FBFBA2FA92F982F8827BC01CD01620FAC
:10032000711D811D911D42E0660F771F881F991F67
:100330004A95D1F708952FB7F894609136027091DD
:10034000370280913802909139022FBF0895809131
:10035000AA019091AB01891B990B0895AF92BF92AE
:10036000CF92DF92EF92FF920F931F93CF93DF9381
:100370006C017B018B01040F151FEB015E01AE18B0
:10038000BF08C017D10759F06991D601ED91FC91D2
:100390000190F081E02DC6010995892B79F7C501FF
:1003A000DF91CF911F910F91FF90EF90DF90CF9051
:1003B000BF90AF900895FC01538D448D252F30E000
:1003C000842F90E0821B930B541710F0CF96089562
:1003D00001970895FC01918D828D981761F0A28D8F
:1003E000AE0FBF2FB11D5D968C91928D9F5F9F7355
:1003F000928F90E008958FEF9FEF0895FC01918D0B
:10040000828D981731F0828DE80FF11D858D90E077
:1004100008958FEF9FEF0895FC01918D228D892F14
:1004200090E0805C9F4F821B91098F7399270895FC
:100430008EE392E00E940C0221E0892B09F420E077
:10044000822F089580E090E0892B29F00E94180205
:1004500081110C9400000895FC01A48DA80FB92F00
:10046000B11DA35ABF4F2C91848D90E001968F73DC
:100470009927848FA689B7892C93A089B1898C91FB
:10048000837080648C93938D848D981306C002884A
:10049000F389E02D80818F7D80830895EF92FF9214
:1004A0000F931F93CF93DF93EC0181E0888F9B8D97
:1004B0008C8D98131AC0E889F989808185FF15C051
:1004C0009FB7F894EE89FF896083E889F989808174
:1004D0008370806480839FBF81E090E0DF91CF9143
:1004E0001F910F91FF90EF900895F62E0B8D10E065
:1004F0000F5F1F4F0F731127E02E8C8D8E110CC0D4
:100500000FB607FCFACFE889F989808185FFF5CF1E
:10051000CE010E942C02F1CFEB8DEC0FFD2FF11DCF
:10052000E35AFF4FF0829FB7F8940B8FEA89FB895B
:1005300080818062CFCFCF93DF93EC01888D8823B9
:10054000B9F0AA89BB89E889F9898C9185FD03C036
:10055000808186FD0DC00FB607FCF7CF8C9185FF1B
:10056000F2CF808185FFEDCFCE010E942C02E9CF32
:10057000DF91CF9108951F93CF93DF93C1E0C09394
:100580006601882399F1D091B8001091BA0080914A
:10059000BC008A7B8093BC0060E082E10E94CE00B8
:1005A00060E083E10E94CE001092F201C093F1015D
:1005B0001092CC0161E082E10E94CE0061E083E113
:1005C0000E94CE008091B9008E7F8093B900809107
:1005D000B9008D7F8093B90088E48093B80085E4EA
:1005E0008093BC001093BA00D093B800DF91CF91F4
:1005F0001F91089520918701260F3327331F213241
:100600003105ECF42091F201FC0190E080E024300F
:1006100069F082E00895A09187012191AC014959C8
:100620005E4FA40FB52FB11D2C930196861798F33A
:1006300080918701680F6093870180E0089581E0D1
:1006400008950895E091AB018091AA01E81730F474
:10065000F0E0E455FE4F808190E008958FEF9FEF2A
:1006600008959091AB018091AA012FEF3FEF981769
:1006700048F4E92FF0E0E455FE4F208130E09F5F21
:100680009093AB01C9010895CF92DF92EF92FF9250
:100690000F931F93CF93DF937C01CB018A012091AD
:1006A0001B02222389F0EB016B01C40ED51ECC1571
:1006B000DD0569F06991D701ED91FC910190F08120
:1006C000E02DC7010995F3CF642F0E94FA02C801FB
:1006D000DF91CF911F910F91FF90EF90DF90CF901E
:1006E0000895CF93DF931F92CDB7DEB76983209132
:1006F0001B022223F9F020911802203258F021E049
:1007000030E0FC013383228390E080E00F90DF91A2
:10071000CF91089580911902E82FF0E0E850FE4F44
:10072000998190838F5F809319028093180281E0F2
:1007300090E0ECCF61E0CE0101960E94FA02F7CF83
:1007400090E080E00895CF93DF93FC0101900020BA
:10075000E9F73197AF01481B590BBC018EE392E0DA
:100760000E94AE01EC0142E050E06CE271E08EE3E9
:1007700092E00E94AE018C0F9D1FDF91CF910895F2
:1007800085ED8093BC008091F4019091F501A091DA
:10079000F601B091F7010796A11DB11D23E0B695B2
:1007A000A795979587952A95D1F72091BC0024FDB0
:1007B00003C01092F20108954091F4015091F501A7
:1007C0006091F6017091F701452B462B472B69F399
:1007D0000097A105B10541F02AE22A95F1F700C082
:1007E0000197A109B109E1CF8091F3010C94BB02FB
:1007F0001F920F920FB60F9211242F933F938F9356
:100800009F93AF93BF938091360290913702A0914E
:100810003802B09139023091350223E0230F2D3791
:1008200058F50196A11DB11D209335028093360223
:1008300090933702A0933802B093390280913A0224
:1008400090913B02A0913C02B0913D020196A11D06
:10085000B11D80933A0290933B02A0933C02B09367
:100860003D02BF91AF919F918F913F912F910F903A
:100870000FBE0F901F90189526E8230F0296A11D1A
:10088000B11DD2CF1F920F920FB60F9211242F934A
:100890003F934F935F936F937F938F939F93AF9308
:1008A000BF93EF93FF938EE392E00E942C02FF919F
:1008B000EF91BF91AF919F918F917F916F915F91D8
:1008C0004F913F912F910F900FBE0F901F90189551
:1008D0001F920F920FB60F9211242F938F939F9315
:1008E000EF93FF93E0914E02F0914F028081E091EF
:1008F0005402F091550282FD1BC0908180915702F5
:100900008F5F8F7320915802821741F0E091570258
:10091000F0E0E25CFD4F958F80935702FF91EF91DD
:100920009F918F912F910F900FBE0F901F90189550
:100930008081F4CF1F920F920FB60F9211242F9344
:100940003F934F935F936F937F938F939F93AF9357
:10095000BF93EF93FF938091B900887F803609F4AD
:100960004AC0F0F5883209F4A5C018F5803109F4C1
:1009700099C0B8F4882309F4F5C0883009F492C00E
:10098000FF91EF91BF91AF919F918F917F916F9167
:100990005F914F913F912F910F900FBE0F901F903D
:1009A0001895883109F486C0803251F78093F001A0
:1009B00014C0803409F49BC040F48033B9F3883309
:1009C000F9F68093F00185ECAEC0803509F483C060
:1009D000883509F494C0883499F60E94C003D0CFBA
:1009E000883909F48AC038F5883729F050F48836F8
:1009F00011F0803729F683E08093F2011092A9016B
:100A000055C0883809F479C0803919F0803809F068
:100A1000B7CF8091A901803208F06FC0E091A901A1
:100A200081E08E0F8093A9018091BB00F0E0E75731
:100A3000FE4F80833BC0803B39F0D0F4803A09F40C
:100A400077C0883A09F09CCF84E08093F20110923D
:100A5000880110928701F0E0E0E00995809187011C
:100A600081110FC081E0809387011092670109C056
:100A7000803C09F4A8CF883C09F4A5CF883B09F055
:100A80007FCFE091880181E08E0F80938801F0E0B4
:100A9000E959FE4F80818093BB009091880180913D
:100AA000870129C08091CD018093BB0085EC8093A4
:100AB000BC0066CF9091EF018091EE01981758F538
:100AC000E091EF0181E08E0F8093EF01F0E0E253BF
:100AD000FE4F8081E9CFE091EF0181E08E0F80939E
:100AE000EF018091BB00F0E0E253FE4F80839091D4
:100AF000EF018091EE019817C8F285E8D8CFE09118
:100B0000EF0181E08E0F8093EF018091BB00F0E058
:100B1000E253FE4F80838091F10181115ECF81E02D
:100B20008093CC0184EA8093BC001092F20128CF1C
:100B300085EC8093BC001092F2018091A901803273
:100B400030F4E091A901F0E0E757FE4F1082609188
:100B5000A90170E089E891E0F0E0E0E009951092E9
:100B6000A9010ECF1092F00138CF1F920F920FB64D
:100B70000F9211242F933F934F935F936F937F9323
:100B80008F939F93AF93BF93CF93DF93EF93FF9395
:100B900080916501C0913003D0E087FF24C010929E
:100BA000850010928400809165018F5F80936501BC
:100BB00080916501082E000C990B8C179D0724F479
:100BC000809165018C30C4F1809184009091850002
:100BD000049680349C4908F47AC0809184009091F6
:100BE0008500049676C080916501082E000C990B53
:100BF0008C179D07C4F6E09165018E2FEE0F990BBF
:100C0000FC01EE0FFF1FE80FF91FE45FFC4F80812E
:100C100086FFC9CFE09165018E2FEE0F990BFC0185
:100C2000EE0FFF1FE80FF91FE45FFC4F808160E0CB
:100C30008F730E94CE00B7CF209184003091850041
:100C4000E09165018E2FEE0F990BFC01EE0FFF1F57
:100C5000E80FF91FE45FFC4F81819281820F931F9F
:100C60009093890080938800E09165018E2FEE0FAC
:100C7000990BFC01EE0FFF1FE80FF91FE45FFC4F1B
:100C8000808186FF11C0E09165018E2FEE0F990BD8
:100C9000FC01EE0FFF1FE80FF91FE45FFC4F80819E
:100CA00061E08F730E94CE00FF91EF91DF91CF91B1
:100CB000BF91AF919F918F917F916F915F914F9174
:100CC0003F912F910F900FBE0F901F90189580E4C9
:100CD0009CE990938900809388008FEF8093650151
:100CE000E3CF1F920F920FB60F9211242F933F93D1
:100CF0004F935F936F937F938F939F93AF93BF9324
:100D0000EF93FF9380916301909164018093B2000F
:100D100080915F0190916001A0916101B0916201A9
:100D20000196A11DB11D80935F0190936001A09376
:100D30006101B093620180915F0190916001A09187
:100D40006101B091620180915E01811110C081E06A
:100D500080935E0110925F01109260011092610118
:100D600010926201F0E0E0E0099510925E01FF91BF
:100D7000EF91BF91AF919F918F917F916F915F9113
:100D80004F913F912F910F900FBE0F901F9018958C
:100D90008F929F92AF92BF92EF92FF921F93CF9349
:100DA000DF93CDB7DEB763970FB6F894DEBF0FBE03
:100DB000CDBF109241021092400288EE93E0A0E075
:100DC000B0E08093420290934302A0934402B09318
:100DD00045022CE031E030933F0220933E0225ECA7
:100DE00030E030934B0220934A0224EC30E0309301
:100DF0004D0220934C0220EC30E030934F022093C0
:100E00004E0221EC30E0309351022093500222EC4C
:100E100030E0309353022093520226EC30E03093BE
:100E200055022093540210925702109258021092C9
:100E3000590210925A021092DE021092DD02809343
:100E4000DF029093E002A093E102B093E2028EE110
:100E500091E09093DC028093DB0288E68093FD02B0
:100E60001092ED021092EE021092EF021092F00238
:100E70001092F5021092F6021092F7021092F80208
:100E80001092F9021092FA021092FB021092FC02E8
:100E9000809130038C3008F037C191E0980F909327
:100EA00030038093310390E0FC01EE0FFF1FE80F49
:100EB000F91FE45FFC4F88EB9BE0928381838AE714
:100EC00093E09093A1038093A0038EE793E0909327
:100ED0009F0380939E0386E793E09093A303809300
:100EE000A2031092BC031092B4031092B5031092A7
:100EF000B6031092B70380E090E0AFE7B3E48093CD
:100F0000B8039093B903A093BA03B093BB0384E6EC
:100F100090E0A0E0B0E08093B0039093B103A09381
:100F2000B203B093B30310929B0310929A03EE2482
:100F3000E394F12CF0929D03E0929C0311E0109356
:100F4000BD0380E090E0A8E8B1E480938203909331
:100F50008303A0938403B093850340E050E060EAEC
:100F600070E44093860350938703609388037093E3
:100F7000890340E050E060E47FE340938A035093AC
:100F80008B0360938C0370938D0380938E039093F7
:100F90008F03A0939003B093910380E090E0A0E0D2
:100FA000BFE38093920390939303A0939403B09331
:100FB000950380E090E0A0EFB0E4809396039093D7
:100FC0009703A0939803B09399030E949B0180908C
:100FD000B0039090B103A090B203B090B30368192E
:100FE00079098A099B096093A4037093A5038093F0
:100FF000A6039093A703109272031093730384E1E6
:1010000090E0909375038093740310925E031092A6
:101010005F031092600310926103109266031092B6
:101020006703109268031092690310926A0310928A
:101030006B0310926C0310926D0388E190E0909323
:1010400035038093340380E190E0909337038093DD
:101050003603109239031092380310923B0310921A
:101060003A03F0923D03E0923C03F0924603E09293
:10107000450387E0E1E0F1E0DE011D9601900D926D
:101080008A95E1F787E0FE013D96AEE3B3E001907B
:101090000D928A95E1F78CE09E012F5F3F4FF90199
:1010A000982F11929A95E9F797E0E5E4F3E0DE01D5
:1010B000139601900D929A95E1F740E157E25B8714
:1010C0004A87F901A7E4B3E001900D928A95E1F710
:1010D00010925403109253030E949B017093560385
:1010E000609355031093570363960FB6F894DEBFD1
:1010F0000FBECDBFDF91CF911F91FF90EF90BF90BA
:10110000AF909F908F9008958FEF80933103D7CE4B
:10111000789484B5826084BD84B5816084BD85B5D2
:10112000826085BD85B5816085BD80916E008160DE
:1011300080936E0010928100809181008260809384
:101140008100809181008160809381008091800086
:101150008160809380008091B10084608093B100B1
:101160008091B00081608093B00080917A008460AB
:1011700080937A0080917A00826080937A008091D7
:101180007A00816080937A0080917A0080688093F1
:101190007A001092C1000E9487000E94870085E0BB
:1011A0000E94AF0086E00E94AF0087E00E94AF007F
:1011B00088E00E94AF0083E00E94AF008EE392E0DF
:1011C0000E94EA0197FD05C08FE291E00E94A3030F
:1011D000F5CF87E391E00E94A3030E9476014B01C3
:1011E0005C0160EDC62E67E0D62EE12CF12C0E944A
:1011F0007601681979098A099B09683E734081055F
:101200009105A8F321E0C21AD108E108F10838EEEF
:10121000830E33E0931EA11CB11CC114D104E10460
:10122000F10429F782E090E090932C0280932B0246
:10123000C091A003D091A1038091BC03811145C04E
:10124000C880D980EA80FB80C092A803D092A9030D
:10125000E092AA03F092AB03E0919E03F0919F030A
:1012600080819181A281B3818093AC039093AD037F
:10127000A093AE03B093AF038090B8039090B903EE
:10128000A090BA03B090BB03A5019401C701B601B9
:101290000E94D70E18164CF48092A8039092A903CE
:1012A000A092AA03B092AB0310C08090B4039090B8
:1012B000B503A090B603B090B703A5019401C70190
:1012C000B6010E94780D87FDE7CF81E08093BC03D3
:1012D000C12CD12C44E3E42E43ECF42EC092B40391
:1012E000D092B503E092B603F092B703412C512C93
:1012F00054E3652E53E4752E4092B8035092B9031F
:101300006092BA037092BB0388809980AA80BB80E8
:10131000A3019201C501B4010E94D70E18162CF545
:10132000488259826A827B828090A8039090A903A8
:10133000A090AA03B090AB03C090B803D090B903BB
:10134000E090BA03F090BB03A7019601C501B40178
:101350000E94D70E1816C4F4C092A803D092A90315
:10136000E092AA03F092AB031FC020E030E044E318
:1013700053ECC501B4010E94780D87FFD5CFC88218
:10138000D982EA82FB82D0CFC090B403D090B5035B
:10139000E090B603F090B703A7019601C501B40130
:1013A0000E94780D87FDD8CF8BE391E00E94A303C4
:1013B0008EE391E00E94A30389E491E00E94A303DD
:1013C00095EED92E05EC20E0E22E20E0F22E1FEF64
:1013D00032E0C32E8FE491E00E94A30389E591E0FF
:1013E0000E94A30380912B0290912C02019701F59A
:1013F00061E083E00E94CE0061E087E00E94CE00C1
:1014000064EB70E085E00E941A0161E088E00E94D0
:10141000CE0064EB70E086E00E941A01E114F10452
:10142000C9F20E9418028823A9F20E940000D2CFBC
:10143000D091280280910001D81709F4CAC061E058
:1014400083E00E94CE0061E087E00E94CE0070E061
:1014500060E085E00E941A0161E088E00E94CE0011
:1014600070E060E086E00E941A010E949B014B013F
:101470005C0180915E0390915F03A0916003B09145
:101480006103A5019401281B390B4A0B5B0BCA01B0
:10149000B9010E94250E20E030E04AE754E40E94A2
:1014A0007D0D609362037093630380936403909354
:1014B000650380925E0390925F03A0926003B092F6
:1014C0006103C091FD020E949B014B015C0181E020
:1014D00080931B02C0931A021092190210921802F4
:1014E00067E48BED92E00E9471033090180230E2C5
:1014F000331508F41EC10E9476012B013C01809136
:10150000F2018111F1C0C092F20181E08093F101FA
:101510001093F0011092EF013092EE01A8EFB1E0CC
:10152000EEECF1E080E0381279C11092CD0190919B
:10153000CD018C2F880F892B8093CD018091CC0118
:10154000813009F06FC11092CC010E9476012B010D
:101550003C018091CD018093BB008091F40190917A
:10156000F501A091F601B091F701892B8A2B8B2B05
:10157000A1F00E9476012091F4013091F501409193
:10158000F6015091F7016419750986099709261724
:1015900037074807590708F4C8C08091BC0083FD8D
:1015A000D8CF0093BC000E9476012B013C018091B2
:1015B000F201823009F439C18091F0018F3F09F4C2
:1015C000B8C08091F001803209F4B3C08091F0017D
:1015D000B0C00E949B018090240290902502A090B0
:1015E0002602B0902702681979098A099B096B3095
:1015F00071058105910508F022CF8091000180904E
:10160000200290902102A0902202B0902302D813D1
:1016100004C08091730381110AC0D09300018092AD
:101620001C0290921D02A0921E02B0921F024090D6
:101630001C0250901D0260901E0270901F02A301B8
:101640009201C501B4010E940B0D20E030E0A90118
:101650000E94DC0E20E030E044E353E40E940C0DD5
:101660000E94EF0DEB016A30710514F4CAE0D0E07E
:10167000A5019401C301B2010E940B0D20E030E0EE
:10168000A9010E94DC0E20E030E044E353E40E9414
:101690000C0D0E94EF0D5B016A3071051CF48AE0AD
:1016A000A82EB12C61E083E00E94CE0061E087E0CB
:1016B0000E94CE00BE01C53BD10514F064EB70E082
:1016C00085E00E941A0161E088E00E94CE00B50129
:1016D000653B710514F064EB70E086E00E941A012E
:1016E00081E0809328029ACE8091F4019091F501D7
:1016F000A091F601B091F701892B8A2B8B2B09F46D
:10170000FECE0E9476012091F4013091F5014091C6
:10171000F6015091F7016419750986099709261792
:1017200037074807590708F0EACE8091F3010E9475
:10173000BB02109219021092180281E080931B02E2
:10174000C0931A020E9476012B013C018091F201A4
:1017500081118DC081E08093F2018093F10110939B
:10176000F0011092EF018093EE018093CD01809102
:10177000CD01CC0FC82BC093CD018091CC0181301D
:1017800009F0BCC01092CC010E9476012B013C01F3
:101790008091CD018093BB008091F4019091F5017F
:1017A000A091F601B091F701892B8A2B8B2BA1F028
:1017B0000E9476012091F4013091F5014091F601EB
:1017C0005091F7016419750986099709261737079B
:1017D0004807590708F46CC08091BC0083FDD8CF3E
:1017E0000093BC000E9476012B013C018091F20124
:1017F000813009F486C08091EF01C2E0823010F49C
:10180000C091EF01AEECB1E0ECEAF1E080E08C17C2
:1018100009F453C09D9191938F5FF9CF9D9191935E
:101820008F5F81CED092BC00BECE8091F4019091AA
:10183000F501A091F601B091F701892B8A2B8B2B32
:1018400009F4B5CE0E9476012091F4013091F501A2
:101850004091F6015091F7016419750986099709BD
:10186000261737074807590708F0A1CE5ECF8091A9
:10187000F4019091F501A091F601B091F701892B47
:101880008A2B8B2B09F462CF0E9476012091F40100
:101890003091F5014091F6015091F70164197509F5
:1018A00086099709261737074807590708F04ECFCA
:1018B0008091F3010E94BB02C0E01092AB01C09383
:1018C000AA01712C8091AB01C817E9F10E949B011C
:1018D000681979098A099B09683E73408105910559
:1018E00090F58BED92E00E943103E72D072C000C60
:1018F000FF0BE250FD4F80837394E4CFD092BC0085
:1019000071CF8091F4019091F501A091F601B09111
:10191000F701892B8A2B8B2B09F468CF0E94760163
:101920002091F4013091F5014091F6015091F701B9
:101930006419750986099709261737074807590753
:1019400008F054CFB5CF0E949B018091FE02909188
:10195000FF0298278927982790935903809358036B
:10196000092E000CAA0BBB0B40916A0350916B032C
:1019700060916C0370916D034A015B01881A990AAA
:10198000AA0ABB0AC501B4010E94270E20E030E07C
:1019900043E053E40E947D0D209162033091630384
:1019A00040916403509165030E94DC0E4B015C0181
:1019B0009F772DEC3CEC4CE45DE30E94780D87FFB3
:1019C00003C0812C912C5401209166033091670350
:1019D0004091680350916903C501B4010E940C0D48
:1019E0006093660370936703809368039093690321
:1019F000609320027093210280932202909323022D
:101A00000E949B016093240270932502809326021A
:101A100090932702F2CD5058BB27AA270E94230D8E
:101A20000C949D0E0E948F0E38F00E94960E20F0AE
:101A300039F49F3F19F426F40C948C0E0EF4E095C3
:101A4000E7FB0C94860EE92F0E94AE0E58F3BA17EE
:101A5000620773078407950720F079F4A6F50C94C4
:101A6000D00E0EF4E0950B2EBA2FA02D0B01B9016C
:101A700090010C01CA01A0011124FF27591B99F004
:101A8000593F50F4503E68F11A16F040A22F232F10
:101A9000342F4427585FF3CF469537952795A79560
:101AA000F0405395C9F77EF41F16BA0B620B730B07
:101AB000840BBAF09150A1F0FF0FBB1F661F771F78
:101AC000881FC2F70EC0BA0F621F731F841F48F42D
:101AD000879577956795B795F7959E3F08F0B0CFB6
:101AE0009395880F08F09927EE0F9795879508959D
:101AF0000E94620E08F481E008950E94910D0C94FA
:101B00009D0E0E94960E58F00E948F0E40F029F410
:101B10005F3F29F00C94860E51110C94D10E0C9459
:101B20008C0E0E94AE0E68F39923B1F3552391F306
:101B3000951B550BBB27AA2762177307840738F03C
:101B40009F5F5F4F220F331F441FAA1FA9F335D099
:101B50000E2E3AF0E0E832D091505040E695001C4D
:101B6000CAF72BD0FE2F29D0660F771F881FBB1F07
:101B7000261737074807AB07B0E809F0BB0B802DE5
:101B8000BF01FF2793585F4F3AF09E3F510578F011
:101B90000C94860E0C94D10E5F3FE4F3983ED4F380
:101BA000869577956795B795F7959F5FC9F7880FE5
:101BB000911D9695879597F90895E1E0660F771F37
:101BC000881FBB1F621773078407BA0720F0621BC8
:101BD000730B840BBA0BEE1F88F7E09508950E94F3
:101BE000F60D6894B1110C94D10E08950E94B60EB2
:101BF00088F09F5798F0B92F9927B751B0F0E1F0CE
:101C0000660F771F881F991F1AF0BA95C9F714C07D
:101C1000B13091F00E94D00EB1E008950C94D00E36
:101C2000672F782F8827B85F39F0B93FCCF38695B6
:101C300077956795B395D9F73EF490958095709513
:101C400061957F4F8F4F9F4F0895E89409C097FB90
:101C50003EF490958095709561957F4F8F4F9F4F83
:101C60009923A9F0F92F96E9BB279395F6958795C7
:101C700077956795B795F111F8CFFAF4BB0F11F48A
:101C800060FF1BC06F5F7F4F8F4F9F4F16C0882331
:101C900011F096E911C0772321F09EE8872F762F67
:101CA00005C0662371F096E8862F70E060E02AF0A8
:101CB0009A95660F771F881FDAF7880F9695879594
:101CC00097F90895990F0008550FAA0BE0E8FEEF69
:101CD00016161706E807F907C0F012161306E407F0
:101CE000F50798F0621B730B840B950B39F40A26E9
:101CF00061F0232B242B252B21F408950A2609F4C7
:101D0000A140A6958FEF811D811D089597F99F67CA
:101D100080E870E060E008959FEF80EC0895002473
:101D20000A941616170618060906089500240A9440
:101D300012161306140605060895092E0394000CC6
:101D400011F4882352F0BB0F40F4BF2B11F460FF55
:101D500004C06F5F7F4F8F4F9F4F089557FD90587E
:101D6000440F551F59F05F3F71F04795880F97FB5F
:101D7000991F61F09F3F79F0879508951216130619
:101D80001406551FF2CF4695F1DF08C01616170648
:101D90001806991FF1CF869571056105089408957D
:101DA000E894BB2766277727CB0197F908950E940F
:101DB000620E08F48FEF08950E94EF0E0C949D0EB2
:101DC0000E948F0E38F00E94960E20F0952311F09D
:101DD0000C94860E0C948C0E11240C94D10E0E943F
:101DE000AE0E70F3959FC1F3950F50E0551F629FA3
:101DF000F001729FBB27F00DB11D639FAA27F00D64
:101E0000B11DAA1F649F6627B00DA11D661F829F8A
:101E10002227B00DA11D621F739FB00DA11D621F6F
:101E2000839FA00D611D221F749F3327A00D611D8C
:101E3000231F849F600D211D822F762F6A2F11246E
:101E40009F5750409AF0F1F088234AF0EE0FFF1FA1
:101E5000BB1F661F771F881F91505040A9F79E3FF8
:101E6000510580F00C94860E0C94D10E5F3FE4F384
:101E7000983ED4F3869577956795B795F795E7954E
:101E80009F5FC1F7FE2B880F911D9695879597F957
:101E90000895EE0FFF1F0590F491E02D0994F8943A
:101EA000FFCF6E2000000100FD07000000004E0281
:101EB000AE01DB019B020C02EA01FE010000000002
:101EC00071034403A0032103A701310322030D0A78
:101ED0000073617665206D650068693F0068690080
:101EE0004920616D20616C697665007568206F68B6
:101EF00000736F6D657468696E6700706C7A20009E
:107E0000112484B714BE81FFF0D085E080938100F7
:107E100082E08093C00088E18093C10086E0809377
:107E2000C20080E18093C4008EE0C9D0259A86E02C
:107E300020E33CEF91E0309385002093840096BBD3
:107E4000B09BFECF1D9AA8958150A9F7CC24DD24C4
:107E500088248394B5E0AB2EA1E19A2EF3E0BF2EE7
:107E6000A2D0813461F49FD0082FAFD0023811F036
:107E7000013811F484E001C083E08DD089C08234E0
:107E800011F484E103C0853419F485E0A6D080C0E4
:107E9000853579F488D0E82EFF2485D0082F10E0AE
:107EA000102F00270E291F29000F111F8ED06801E7
:107EB0006FC0863521F484E090D080E0DECF843638
:107EC00009F040C070D06FD0082F6DD080E0C81688
:107ED00080E7D80618F4F601B7BEE895C0E0D1E017
:107EE00062D089930C17E1F7F0E0CF16F0E7DF06D8
:107EF00018F0F601B7BEE89568D007B600FCFDCFD4
:107F0000A601A0E0B1E02C9130E011968C91119780
:107F100090E0982F8827822B932B1296FA010C0160
:107F200087BEE89511244E5F5F4FF1E0A038BF0790
:107F300051F7F601A7BEE89507B600FCFDCF97BE46
:107F4000E89526C08437B1F42ED02DD0F82E2BD052
:107F50003CD0F601EF2C8F010F5F1F4F84911BD097
:107F6000EA94F801C1F70894C11CD11CFA94CF0C13
:107F7000D11C0EC0853739F428D08EE10CD085E9AC
:107F80000AD08FE07ACF813511F488E018D01DD067
:107F900080E101D065CF982F8091C00085FFFCCF94
:107FA0009093C60008958091C00087FFFCCF809118
:107FB000C00084FD01C0A8958091C6000895E0E648
:107FC000F0E098E1908380830895EDDF803219F02E
:107FD00088E0F5DFFFCF84E1DECF1F93182FE3DFCA
:107FE0001150E9F7F2DF1F91089580E0E8DFEE27F6
:047FF000FF270994CA
:027FFE00040479
:00000001FF
